{
  "address": "0xF7eB8447e23e3EB8Ab27B92D9B97954d79b85b35",
  "_format": "hh-sol-artifact-1",
  "contractName": "CryptoMomo",
  "sourceName": "contracts/CryptoMomo.sol",
  "abi": [
    {
      "inputs": [],
      "name": "TransferFailed",
      "type": "error"
    },
    {
      "inputs": [],
      "name": "WalletAlreadyCreated",
      "type": "error"
    },
    {
      "inputs": [],
      "name": "WalletDoesNotExists",
      "type": "error"
    },
    {
      "anonymous": false,
      "inputs": [
        {
          "indexed": false,
          "internalType": "uint8",
          "name": "version",
          "type": "uint8"
        }
      ],
      "name": "Initialized",
      "type": "event"
    },
    {
      "anonymous": false,
      "inputs": [
        {
          "indexed": true,
          "internalType": "address",
          "name": "previousOwner",
          "type": "address"
        },
        {
          "indexed": true,
          "internalType": "address",
          "name": "newOwner",
          "type": "address"
        }
      ],
      "name": "OwnershipTransferred",
      "type": "event"
    },
    {
      "anonymous": false,
      "inputs": [
        {
          "indexed": false,
          "internalType": "address",
          "name": "account",
          "type": "address"
        }
      ],
      "name": "Paused",
      "type": "event"
    },
    {
      "anonymous": false,
      "inputs": [
        {
          "indexed": false,
          "internalType": "address",
          "name": "account",
          "type": "address"
        }
      ],
      "name": "Unpaused",
      "type": "event"
    },
    {
      "inputs": [
        {
          "internalType": "string",
          "name": "phonenumberOrUUID",
          "type": "string"
        }
      ],
      "name": "addressOfPhonenumber",
      "outputs": [
        {
          "internalType": "address",
          "name": "",
          "type": "address"
        }
      ],
      "stateMutability": "view",
      "type": "function"
    },
    {
      "inputs": [
        {
          "internalType": "string",
          "name": "phonenumberOrUUID",
          "type": "string"
        },
        {
          "internalType": "address",
          "name": "recipient",
          "type": "address"
        },
        {
          "internalType": "address",
          "name": "token",
          "type": "address"
        },
        {
          "internalType": "uint256",
          "name": "amount",
          "type": "uint256"
        }
      ],
      "name": "approveAddress",
      "outputs": [
        {
          "internalType": "bool",
          "name": "",
          "type": "bool"
        }
      ],
      "stateMutability": "nonpayable",
      "type": "function"
    },
    {
      "inputs": [
        {
          "internalType": "string",
          "name": "phonenumberOrUUID",
          "type": "string"
        },
        {
          "internalType": "string",
          "name": "recipientPhonenumberOrUUID",
          "type": "string"
        },
        {
          "internalType": "address",
          "name": "token",
          "type": "address"
        },
        {
          "internalType": "uint256",
          "name": "amount",
          "type": "uint256"
        }
      ],
      "name": "approvePhonenumber",
      "outputs": [
        {
          "internalType": "bool",
          "name": "",
          "type": "bool"
        }
      ],
      "stateMutability": "nonpayable",
      "type": "function"
    },
    {
      "inputs": [
        {
          "internalType": "string",
          "name": "phonenumberOrUUID",
          "type": "string"
        },
        {
          "internalType": "address",
          "name": "token",
          "type": "address"
        }
      ],
      "name": "balanceOf",
      "outputs": [
        {
          "internalType": "uint256",
          "name": "",
          "type": "uint256"
        }
      ],
      "stateMutability": "view",
      "type": "function"
    },
    {
      "inputs": [
        {
          "internalType": "string",
          "name": "phonenumberOrUUID",
          "type": "string"
        }
      ],
      "name": "createOrClaimWallet",
      "outputs": [
        {
          "internalType": "address",
          "name": "wallet",
          "type": "address"
        }
      ],
      "stateMutability": "nonpayable",
      "type": "function"
    },
    {
      "inputs": [
        {
          "components": [
            {
              "internalType": "address",
              "name": "from",
              "type": "address"
            },
            {
              "internalType": "address",
              "name": "to",
              "type": "address"
            },
            {
              "internalType": "uint256",
              "name": "value",
              "type": "uint256"
            },
            {
              "internalType": "uint256",
              "name": "gas",
              "type": "uint256"
            },
            {
              "internalType": "uint256",
              "name": "nonce",
              "type": "uint256"
            },
            {
              "internalType": "bytes",
              "name": "data",
              "type": "bytes"
            }
          ],
          "internalType": "struct CryptoMomo.ForwardRequest",
          "name": "_req",
          "type": "tuple"
        },
        {
          "internalType": "bytes",
          "name": "_signature",
          "type": "bytes"
        }
      ],
      "name": "execute",
      "outputs": [
        {
          "internalType": "bool",
          "name": "",
          "type": "bool"
        },
        {
          "internalType": "bytes",
          "name": "",
          "type": "bytes"
        }
      ],
      "stateMutability": "payable",
      "type": "function"
    },
    {
      "inputs": [
        {
          "internalType": "address",
          "name": "from",
          "type": "address"
        }
      ],
      "name": "getNonce",
      "outputs": [
        {
          "internalType": "uint256",
          "name": "",
          "type": "uint256"
        }
      ],
      "stateMutability": "view",
      "type": "function"
    },
    {
      "inputs": [
        {
          "internalType": "address",
          "name": "_factoryAddress",
          "type": "address"
        }
      ],
      "name": "initialize",
      "outputs": [],
      "stateMutability": "nonpayable",
      "type": "function"
    },
    {
      "inputs": [],
      "name": "owner",
      "outputs": [
        {
          "internalType": "address",
          "name": "",
          "type": "address"
        }
      ],
      "stateMutability": "view",
      "type": "function"
    },
    {
      "inputs": [],
      "name": "paused",
      "outputs": [
        {
          "internalType": "bool",
          "name": "",
          "type": "bool"
        }
      ],
      "stateMutability": "view",
      "type": "function"
    },
    {
      "inputs": [],
      "name": "renounceOwnership",
      "outputs": [],
      "stateMutability": "nonpayable",
      "type": "function"
    },
    {
      "inputs": [
        {
          "internalType": "string",
          "name": "fromPhonenumberOrUUID",
          "type": "string"
        },
        {
          "internalType": "string",
          "name": "toPhonenumberOrUUID",
          "type": "string"
        },
        {
          "internalType": "address",
          "name": "token",
          "type": "address"
        },
        {
          "internalType": "uint256",
          "name": "amount",
          "type": "uint256"
        }
      ],
      "name": "safeTransferToAccount",
      "outputs": [
        {
          "internalType": "bool",
          "name": "",
          "type": "bool"
        }
      ],
      "stateMutability": "nonpayable",
      "type": "function"
    },
    {
      "inputs": [
        {
          "internalType": "address",
          "name": "inToken",
          "type": "address"
        },
        {
          "internalType": "address",
          "name": "outToken",
          "type": "address"
        },
        {
          "internalType": "uint256",
          "name": "inAmount",
          "type": "uint256"
        }
      ],
      "name": "swap",
      "outputs": [],
      "stateMutability": "nonpayable",
      "type": "function"
    },
    {
      "inputs": [
        {
          "internalType": "address",
          "name": "newOwner",
          "type": "address"
        }
      ],
      "name": "transferOwnership",
      "outputs": [],
      "stateMutability": "nonpayable",
      "type": "function"
    },
    {
      "inputs": [
        {
          "internalType": "string",
          "name": "fromPhonenumberOrUUID",
          "type": "string"
        },
        {
          "internalType": "address",
          "name": "_to",
          "type": "address"
        },
        {
          "internalType": "address",
          "name": "token",
          "type": "address"
        },
        {
          "internalType": "uint256",
          "name": "amount",
          "type": "uint256"
        }
      ],
      "name": "transferToAddress",
      "outputs": [
        {
          "internalType": "bool",
          "name": "",
          "type": "bool"
        }
      ],
      "stateMutability": "nonpayable",
      "type": "function"
    },
    {
      "inputs": [
        {
          "components": [
            {
              "internalType": "address",
              "name": "from",
              "type": "address"
            },
            {
              "internalType": "address",
              "name": "to",
              "type": "address"
            },
            {
              "internalType": "uint256",
              "name": "value",
              "type": "uint256"
            },
            {
              "internalType": "uint256",
              "name": "gas",
              "type": "uint256"
            },
            {
              "internalType": "uint256",
              "name": "nonce",
              "type": "uint256"
            },
            {
              "internalType": "bytes",
              "name": "data",
              "type": "bytes"
            }
          ],
          "internalType": "struct CryptoMomo.ForwardRequest",
          "name": "_req",
          "type": "tuple"
        },
        {
          "internalType": "bytes",
          "name": "_signature",
          "type": "bytes"
        }
      ],
      "name": "verify",
      "outputs": [
        {
          "internalType": "bool",
          "name": "",
          "type": "bool"
        }
      ],
      "stateMutability": "view",
      "type": "function"
    }
  ],
  "bytecode": "0x608060405234801561001057600080fd5b50613400806100206000396000f3fe6080604052600436106100f35760003560e01c8063a9b6d8031161008a578063df791e5011610059578063df791e501461036a578063e5f7b48d14610393578063f2fde38b146103d0578063fb979c55146103f9576100f3565b8063a9b6d8031461028a578063b5336eef146102c7578063bf5d3bdb14610304578063c4d66de814610341576100f3565b806347153f82116100c657806347153f82146101ec5780635c975abb1461021d578063715018a6146102485780638da5cb5b1461025f576100f3565b806304031852146100f857806307381ef9146101355780632d0335ab1461017257806346011693146101af575b600080fd5b34801561010457600080fd5b5061011f600480360381019061011a9190611ae8565b610436565b60405161012c9190611b61565b60405180910390f35b34801561014157600080fd5b5061015c60048036038101906101579190611ba8565b61052a565b6040516101699190611c4b565b60405180910390f35b34801561017e57600080fd5b5061019960048036038101906101949190611c66565b610620565b6040516101a69190611b61565b60405180910390f35b3480156101bb57600080fd5b506101d660048036038101906101d19190611ba8565b610669565b6040516101e39190611c4b565b60405180910390f35b61020660048036038101906102019190611e9a565b6107a4565b604051610214929190611f9a565b60405180910390f35b34801561022957600080fd5b50610232610918565b60405161023f9190611c4b565b60405180910390f35b34801561025457600080fd5b5061025d61092f565b005b34801561026b57600080fd5b50610274610943565b6040516102819190611fd9565b60405180910390f35b34801561029657600080fd5b506102b160048036038101906102ac9190611ff4565b61096d565b6040516102be9190611c4b565b60405180910390f35b3480156102d357600080fd5b506102ee60048036038101906102e99190611ff4565b610ac5565b6040516102fb9190611c4b565b60405180910390f35b34801561031057600080fd5b5061032b60048036038101906103269190611e9a565b610cc0565b6040516103389190611c4b565b60405180910390f35b34801561034d57600080fd5b5061036860048036038101906103639190611c66565b610d1c565b005b34801561037657600080fd5b50610391600480360381019061038c919061209b565b610f18565b005b34801561039f57600080fd5b506103ba60048036038101906103b591906120ee565b610f2d565b6040516103c79190611fd9565b60405180910390f35b3480156103dc57600080fd5b506103f760048036038101906103f29190611c66565b611036565b005b34801561040557600080fd5b50610420600480360381019061041b91906120ee565b6110b9565b60405161042d9190611fd9565b60405180910390f35b6000610440611173565b8383600061044e83836110b9565b9050610459816111f1565b61048f576040517fa0dbb6a900000000000000000000000000000000000000000000000000000000815260040160405180910390fd5b600061049b88886110b9565b905060008173ffffffffffffffffffffffffffffffffffffffff1663e3d670d7886040518263ffffffff1660e01b81526004016104d89190611fd9565b602060405180830381865afa1580156104f5573d6000803e3d6000fd5b505050506040513d601f19601f820116820180604052508101906105199190612150565b905080955050505050509392505050565b6000610534611173565b8585600061054283836110b9565b905061054d816111f1565b610583576040517fa0dbb6a900000000000000000000000000000000000000000000000000000000815260040160405180910390fd5b600061058f8a8a6110b9565b90508073ffffffffffffffffffffffffffffffffffffffff1663e1f21c67888a896040518463ffffffff1660e01b81526004016105ce9392919061217d565b6020604051808303816000875af11580156105ed573d6000803e3d6000fd5b505050506040513d601f19601f8201168201806040525081019061061191906121e0565b94505050505095945050505050565b600060cc60008373ffffffffffffffffffffffffffffffffffffffff1673ffffffffffffffffffffffffffffffffffffffff168152602001908152602001600020549050919050565b6000610673611173565b61067b61123c565b8585600061068983836110b9565b9050610694816111f1565b6106ca576040517fa0dbb6a900000000000000000000000000000000000000000000000000000000815260040160405180910390fd5b60006106d68a8a6110b9565b905060008173ffffffffffffffffffffffffffffffffffffffff166301e33667898b8a6040518463ffffffff1660e01b81526004016107179392919061217d565b6020604051808303816000875af1158015610736573d6000803e3d6000fd5b505050506040513d601f19601f8201168201806040525081019061075a91906121e0565b905080610793576040517f90b8ec1800000000000000000000000000000000000000000000000000000000815260040160405180910390fd5b809550505050505095945050505050565b600060606107b28484610cc0565b6107f1576040517f08c379a00000000000000000000000000000000000000000000000000000000081526004016107e890612290565b60405180910390fd5b6001846080015161080291906122df565b60cc6000866000015173ffffffffffffffffffffffffffffffffffffffff1673ffffffffffffffffffffffffffffffffffffffff16815260200190815260200160002081905550600080856020015173ffffffffffffffffffffffffffffffffffffffff16866060015187604001518860a00151896000015160405160200161088c9291906123b9565b6040516020818303038152906040526040516108a891906123e1565b600060405180830381858888f193505050503d80600081146108e6576040519150601f19603f3d011682016040523d82523d6000602084013e6108eb565b606091505b5091509150603f86606001516109019190612427565b5a1161090957fe5b81819350935050509250929050565b6000603360009054906101000a900460ff16905090565b610937611173565b6109416000611286565b565b6000606560009054906101000a900473ffffffffffffffffffffffffffffffffffffffff16905090565b6000610977611173565b8686600061098583836110b9565b9050610990816111f1565b6109c6576040517fa0dbb6a900000000000000000000000000000000000000000000000000000000815260040160405180910390fd5b878760006109d483836110b9565b90506109df816111f1565b610a15576040517fa0dbb6a900000000000000000000000000000000000000000000000000000000815260040160405180910390fd5b6000610a218e8e6110b9565b90506000610a2f8d8d6110b9565b90508173ffffffffffffffffffffffffffffffffffffffff1663e1f21c678c838d6040518463ffffffff1660e01b8152600401610a6e9392919061217d565b6020604051808303816000875af1158015610a8d573d6000803e3d6000fd5b505050506040513d601f19601f82011682018060405250810190610ab191906121e0565b985050505050505050509695505050505050565b6000610acf611173565b610ad761123c565b86866000610ae583836110b9565b9050610af0816111f1565b610b26576040517fa0dbb6a900000000000000000000000000000000000000000000000000000000815260040160405180910390fd5b6000610b3289896110b9565b90506000610b408c8c6110b9565b9050610b4b826111f1565b610bf25760cb60009054906101000a900473ffffffffffffffffffffffffffffffffffffffff1673ffffffffffffffffffffffffffffffffffffffff166301287e118b8b6040518363ffffffff1660e01b8152600401610bac929190612485565b6020604051808303816000875af1158015610bcb573d6000803e3d6000fd5b505050506040513d601f19601f82011682018060405250810190610bef91906124be565b91505b60008173ffffffffffffffffffffffffffffffffffffffff166301e336678a858b6040518463ffffffff1660e01b8152600401610c319392919061217d565b6020604051808303816000875af1158015610c50573d6000803e3d6000fd5b505050506040513d601f19601f82011682018060405250810190610c7491906121e0565b905080610cad576040517f90b8ec1800000000000000000000000000000000000000000000000000000000815260040160405180910390fd5b8096505050505050509695505050505050565b600080610ccd848461134c565b90508073ffffffffffffffffffffffffffffffffffffffff16846000015173ffffffffffffffffffffffffffffffffffffffff1614610d10576000915050610d16565b60019150505b92915050565b60008060019054906101000a900460ff16159050808015610d4d5750600160008054906101000a900460ff1660ff16105b80610d7a5750610d5c306113e7565b158015610d795750600160008054906101000a900460ff1660ff16145b5b610db9576040517f08c379a0000000000000000000000000000000000000000000000000000000008152600401610db09061255d565b60405180910390fd5b60016000806101000a81548160ff021916908360ff1602179055508015610df6576001600060016101000a81548160ff0219169083151502179055505b610dfe61140a565b610e06611463565b610e7a6040518060400160405280601381526020017f43727970746f4d6f6d6f466f72776172646572000000000000000000000000008152506040518060400160405280600581526020017f302e302e310000000000000000000000000000000000000000000000000000008152506114bc565b8160cb60006101000a81548173ffffffffffffffffffffffffffffffffffffffff021916908373ffffffffffffffffffffffffffffffffffffffff1602179055508015610f145760008060016101000a81548160ff0219169083151502179055507f7f26b83ff96e1f2b6a682f133852f6798a09c465da95921460cefb38474024986001604051610f0b91906125cf565b60405180910390a15b5050565b610f20611173565b610f2861123c565b505050565b6000610f37611173565b610f3f61123c565b6000610f4b84846110b9565b9050610f56816111f1565b15610f8d576040517f8d90473400000000000000000000000000000000000000000000000000000000815260040160405180910390fd5b60cb60009054906101000a900473ffffffffffffffffffffffffffffffffffffffff1673ffffffffffffffffffffffffffffffffffffffff166301287e1185856040518363ffffffff1660e01b8152600401610fea929190612485565b6020604051808303816000875af1158015611009573d6000803e3d6000fd5b505050506040513d601f19601f8201168201806040525081019061102d91906124be565b91505092915050565b61103e611173565b600073ffffffffffffffffffffffffffffffffffffffff168173ffffffffffffffffffffffffffffffffffffffff16036110ad576040517f08c379a00000000000000000000000000000000000000000000000000000000081526004016110a49061265c565b60405180910390fd5b6110b681611286565b50565b60006110c361123c565b60ff60f81b60cb60009054906101000a900473ffffffffffffffffffffffffffffffffffffffff1684846040516020016110fe9291906126ac565b604051602081830303815290604052805190602001206040518060200161112490611a04565b6020820181038252601f19601f8201166040525080519060200120604051602001611152949392919061273d565b6040516020818303038152906040528051906020012060001c905092915050565b61117b611519565b73ffffffffffffffffffffffffffffffffffffffff16611199610943565b73ffffffffffffffffffffffffffffffffffffffff16146111ef576040517f08c379a00000000000000000000000000000000000000000000000000000000081526004016111e6906127d7565b60405180910390fd5b565b6000807fc5d2460186f7233c927e7db2dcc703c0e500b653ca82273b7bfad8045d85a47060001b90506000833f90506000801b81141580156112335750818114155b92505050919050565b611244610918565b15611284576040517f08c379a000000000000000000000000000000000000000000000000000000000815260040161127b90612843565b60405180910390fd5b565b6000606560009054906101000a900473ffffffffffffffffffffffffffffffffffffffff16905081606560006101000a81548173ffffffffffffffffffffffffffffffffffffffff021916908373ffffffffffffffffffffffffffffffffffffffff1602179055508173ffffffffffffffffffffffffffffffffffffffff168173ffffffffffffffffffffffffffffffffffffffff167f8be0079c531659141344cd1fd0a4f28419497f9722a3daafe3b4186f6b6457e060405160405180910390a35050565b6000806113db836113cd7fdd8f4b70b0f4393e889bd39128a30628a78b61816a9eb8199759e7a349657e488760000151886020015189604001518a606001518b608001518c60a00151805190602001206040516020016113b29796959493929190612872565b60405160208183030381529060405280519060200120611521565b61153b90919063ffffffff16565b90508091505092915050565b6000808273ffffffffffffffffffffffffffffffffffffffff163b119050919050565b600060019054906101000a900460ff16611459576040517f08c379a000000000000000000000000000000000000000000000000000000000815260040161145090612953565b60405180910390fd5b611461611562565b565b600060019054906101000a900460ff166114b2576040517f08c379a00000000000000000000000000000000000000000000000000000000081526004016114a990612953565b60405180910390fd5b6114ba6115ce565b565b600060019054906101000a900460ff1661150b576040517f08c379a000000000000000000000000000000000000000000000000000000000815260040161150290612953565b60405180910390fd5b611515828261162f565b5050565b600033905090565b600061153461152e6116aa565b836116ea565b9050919050565b600080600061154a858561171d565b915091506115578161176e565b819250505092915050565b600060019054906101000a900460ff166115b1576040517f08c379a00000000000000000000000000000000000000000000000000000000081526004016115a890612953565b60405180910390fd5b6000603360006101000a81548160ff021916908315150217905550565b600060019054906101000a900460ff1661161d576040517f08c379a000000000000000000000000000000000000000000000000000000000815260040161161490612953565b60405180910390fd5b61162d611628611519565b611286565b565b600060019054906101000a900460ff1661167e576040517f08c379a000000000000000000000000000000000000000000000000000000000815260040161167590612953565b60405180910390fd5b600082805190602001209050600082805190602001209050816097819055508060988190555050505050565b60006116e57f8b73c3c69bb8fe3d512ecc4cf759cc79239f7b179b0ffacaa9a75d522b39400f6116d86118d4565b6116e06118de565b6118e8565b905090565b600082826040516020016116ff9291906129bf565b60405160208183030381529060405280519060200120905092915050565b600080604183510361175e5760008060006020860151925060408601519150606086015160001a905061175287828585611922565b94509450505050611767565b60006002915091505b9250929050565b60006004811115611782576117816129f6565b5b816004811115611795576117946129f6565b5b03156118d157600160048111156117af576117ae6129f6565b5b8160048111156117c2576117c16129f6565b5b03611802576040517f08c379a00000000000000000000000000000000000000000000000000000000081526004016117f990612a71565b60405180910390fd5b60026004811115611816576118156129f6565b5b816004811115611829576118286129f6565b5b03611869576040517f08c379a000000000000000000000000000000000000000000000000000000000815260040161186090612add565b60405180910390fd5b6003600481111561187d5761187c6129f6565b5b8160048111156118905761188f6129f6565b5b036118d0576040517f08c379a00000000000000000000000000000000000000000000000000000000081526004016118c790612b6f565b60405180910390fd5b5b50565b6000609754905090565b6000609854905090565b60008383834630604051602001611903959493929190612b8f565b6040516020818303038152906040528051906020012090509392505050565b6000807f7fffffffffffffffffffffffffffffff5d576e7357a4501ddfe92f46681b20a08360001c111561195d5760006003915091506119fb565b6000600187878787604051600081526020016040526040516119829493929190612bf1565b6020604051602081039080840390855afa1580156119a4573d6000803e3d6000fd5b505050602060405103519050600073ffffffffffffffffffffffffffffffffffffffff168173ffffffffffffffffffffffffffffffffffffffff16036119f2576000600192509250506119fb565b80600092509250505b94509492505050565b61079480612c3783390190565b6000604051905090565b600080fd5b600080fd5b600080fd5b600080fd5b600080fd5b60008083601f840112611a4a57611a49611a25565b5b8235905067ffffffffffffffff811115611a6757611a66611a2a565b5b602083019150836001820283011115611a8357611a82611a2f565b5b9250929050565b600073ffffffffffffffffffffffffffffffffffffffff82169050919050565b6000611ab582611a8a565b9050919050565b611ac581611aaa565b8114611ad057600080fd5b50565b600081359050611ae281611abc565b92915050565b600080600060408486031215611b0157611b00611a1b565b5b600084013567ffffffffffffffff811115611b1f57611b1e611a20565b5b611b2b86828701611a34565b93509350506020611b3e86828701611ad3565b9150509250925092565b6000819050919050565b611b5b81611b48565b82525050565b6000602082019050611b766000830184611b52565b92915050565b611b8581611b48565b8114611b9057600080fd5b50565b600081359050611ba281611b7c565b92915050565b600080600080600060808688031215611bc457611bc3611a1b565b5b600086013567ffffffffffffffff811115611be257611be1611a20565b5b611bee88828901611a34565b95509550506020611c0188828901611ad3565b9350506040611c1288828901611ad3565b9250506060611c2388828901611b93565b9150509295509295909350565b60008115159050919050565b611c4581611c30565b82525050565b6000602082019050611c606000830184611c3c565b92915050565b600060208284031215611c7c57611c7b611a1b565b5b6000611c8a84828501611ad3565b91505092915050565b600080fd5b6000601f19601f8301169050919050565b7f4e487b7100000000000000000000000000000000000000000000000000000000600052604160045260246000fd5b611ce182611c98565b810181811067ffffffffffffffff82111715611d0057611cff611ca9565b5b80604052505050565b6000611d13611a11565b9050611d1f8282611cd8565b919050565b600080fd5b600080fd5b600067ffffffffffffffff821115611d4957611d48611ca9565b5b611d5282611c98565b9050602081019050919050565b82818337600083830152505050565b6000611d81611d7c84611d2e565b611d09565b905082815260208101848484011115611d9d57611d9c611d29565b5b611da8848285611d5f565b509392505050565b600082601f830112611dc557611dc4611a25565b5b8135611dd5848260208601611d6e565b91505092915050565b600060c08284031215611df457611df3611c93565b5b611dfe60c0611d09565b90506000611e0e84828501611ad3565b6000830152506020611e2284828501611ad3565b6020830152506040611e3684828501611b93565b6040830152506060611e4a84828501611b93565b6060830152506080611e5e84828501611b93565b60808301525060a082013567ffffffffffffffff811115611e8257611e81611d24565b5b611e8e84828501611db0565b60a08301525092915050565b60008060408385031215611eb157611eb0611a1b565b5b600083013567ffffffffffffffff811115611ecf57611ece611a20565b5b611edb85828601611dde565b925050602083013567ffffffffffffffff811115611efc57611efb611a20565b5b611f0885828601611db0565b9150509250929050565b600081519050919050565b600082825260208201905092915050565b60005b83811015611f4c578082015181840152602081019050611f31565b83811115611f5b576000848401525b50505050565b6000611f6c82611f12565b611f768185611f1d565b9350611f86818560208601611f2e565b611f8f81611c98565b840191505092915050565b6000604082019050611faf6000830185611c3c565b8181036020830152611fc18184611f61565b90509392505050565b611fd381611aaa565b82525050565b6000602082019050611fee6000830184611fca565b92915050565b6000806000806000806080878903121561201157612010611a1b565b5b600087013567ffffffffffffffff81111561202f5761202e611a20565b5b61203b89828a01611a34565b9650965050602087013567ffffffffffffffff81111561205e5761205d611a20565b5b61206a89828a01611a34565b9450945050604061207d89828a01611ad3565b925050606061208e89828a01611b93565b9150509295509295509295565b6000806000606084860312156120b4576120b3611a1b565b5b60006120c286828701611ad3565b93505060206120d386828701611ad3565b92505060406120e486828701611b93565b9150509250925092565b6000806020838503121561210557612104611a1b565b5b600083013567ffffffffffffffff81111561212357612122611a20565b5b61212f85828601611a34565b92509250509250929050565b60008151905061214a81611b7c565b92915050565b60006020828403121561216657612165611a1b565b5b60006121748482850161213b565b91505092915050565b60006060820190506121926000830186611fca565b61219f6020830185611fca565b6121ac6040830184611b52565b949350505050565b6121bd81611c30565b81146121c857600080fd5b50565b6000815190506121da816121b4565b92915050565b6000602082840312156121f6576121f5611a1b565b5b6000612204848285016121cb565b91505092915050565b600082825260208201905092915050565b7f506179736c696365466f727761726465723a207369676e617475726520646f6560008201527f73206e6f74206d61746368207265717565737400000000000000000000000000602082015250565b600061227a60338361220d565b91506122858261221e565b604082019050919050565b600060208201905081810360008301526122a98161226d565b9050919050565b7f4e487b7100000000000000000000000000000000000000000000000000000000600052601160045260246000fd5b60006122ea82611b48565b91506122f583611b48565b9250827fffffffffffffffffffffffffffffffffffffffffffffffffffffffffffffffff0382111561232a576123296122b0565b5b828201905092915050565b600081905092915050565b600061234b82611f12565b6123558185612335565b9350612365818560208601611f2e565b80840191505092915050565b60008160601b9050919050565b600061238982612371565b9050919050565b600061239b8261237e565b9050919050565b6123b36123ae82611aaa565b612390565b82525050565b60006123c58285612340565b91506123d182846123a2565b6014820191508190509392505050565b60006123ed8284612340565b915081905092915050565b7f4e487b7100000000000000000000000000000000000000000000000000000000600052601260045260246000fd5b600061243282611b48565b915061243d83611b48565b92508261244d5761244c6123f8565b5b828204905092915050565b6000612464838561220d565b9350612471838584611d5f565b61247a83611c98565b840190509392505050565b600060208201905081810360008301526124a0818486612458565b90509392505050565b6000815190506124b881611abc565b92915050565b6000602082840312156124d4576124d3611a1b565b5b60006124e2848285016124a9565b91505092915050565b7f496e697469616c697a61626c653a20636f6e747261637420697320616c72656160008201527f647920696e697469616c697a6564000000000000000000000000000000000000602082015250565b6000612547602e8361220d565b9150612552826124eb565b604082019050919050565b600060208201905081810360008301526125768161253a565b9050919050565b6000819050919050565b600060ff82169050919050565b6000819050919050565b60006125b96125b46125af8461257d565b612594565b612587565b9050919050565b6125c98161259e565b82525050565b60006020820190506125e460008301846125c0565b92915050565b7f4f776e61626c653a206e6577206f776e657220697320746865207a65726f206160008201527f6464726573730000000000000000000000000000000000000000000000000000602082015250565b600061264660268361220d565b9150612651826125ea565b604082019050919050565b6000602082019050818103600083015261267581612639565b9050919050565b600081905092915050565b6000612693838561267c565b93506126a0838584611d5f565b82840190509392505050565b60006126b9828486612687565b91508190509392505050565b60007fff0000000000000000000000000000000000000000000000000000000000000082169050919050565b6000819050919050565b61270c612707826126c5565b6126f1565b82525050565b6000819050919050565b6000819050919050565b61273761273282612712565b61271c565b82525050565b600061274982876126fb565b60018201915061275982866123a2565b6014820191506127698285612726565b6020820191506127798284612726565b60208201915081905095945050505050565b7f4f776e61626c653a2063616c6c6572206973206e6f7420746865206f776e6572600082015250565b60006127c160208361220d565b91506127cc8261278b565b602082019050919050565b600060208201905081810360008301526127f0816127b4565b9050919050565b7f5061757361626c653a2070617573656400000000000000000000000000000000600082015250565b600061282d60108361220d565b9150612838826127f7565b602082019050919050565b6000602082019050818103600083015261285c81612820565b9050919050565b61286c81612712565b82525050565b600060e082019050612887600083018a612863565b6128946020830189611fca565b6128a16040830188611fca565b6128ae6060830187611b52565b6128bb6080830186611b52565b6128c860a0830185611b52565b6128d560c0830184612863565b98975050505050505050565b7f496e697469616c697a61626c653a20636f6e7472616374206973206e6f74206960008201527f6e697469616c697a696e67000000000000000000000000000000000000000000602082015250565b600061293d602b8361220d565b9150612948826128e1565b604082019050919050565b6000602082019050818103600083015261296c81612930565b9050919050565b7f1901000000000000000000000000000000000000000000000000000000000000600082015250565b60006129a960028361267c565b91506129b482612973565b600282019050919050565b60006129ca8261299c565b91506129d68285612726565b6020820191506129e68284612726565b6020820191508190509392505050565b7f4e487b7100000000000000000000000000000000000000000000000000000000600052602160045260246000fd5b7f45434453413a20696e76616c6964207369676e61747572650000000000000000600082015250565b6000612a5b60188361220d565b9150612a6682612a25565b602082019050919050565b60006020820190508181036000830152612a8a81612a4e565b9050919050565b7f45434453413a20696e76616c6964207369676e6174757265206c656e67746800600082015250565b6000612ac7601f8361220d565b9150612ad282612a91565b602082019050919050565b60006020820190508181036000830152612af681612aba565b9050919050565b7f45434453413a20696e76616c6964207369676e6174757265202773272076616c60008201527f7565000000000000000000000000000000000000000000000000000000000000602082015250565b6000612b5960228361220d565b9150612b6482612afd565b604082019050919050565b60006020820190508181036000830152612b8881612b4c565b9050919050565b600060a082019050612ba46000830188612863565b612bb16020830187612863565b612bbe6040830186612863565b612bcb6060830185611b52565b612bd86080830184611fca565b9695505050505050565b612beb81612587565b82525050565b6000608082019050612c066000830187612863565b612c136020830186612be2565b612c206040830185612863565b612c2d6060830184612863565b9594505050505056fe608060405234801561001057600080fd5b50610774806100206000396000f3fe60806040526004361061002d5760003560e01c8063485cc95514610038578063966dae0e146100615761002e565b5b61003661008c565b005b34801561004457600080fd5b5061005f600480360381019061005a91906104aa565b6101f3565b005b34801561006d57600080fd5b506100766103fe565b60405161008391906104f9565b60405180910390f35b3373ffffffffffffffffffffffffffffffffffffffff16600060029054906101000a900473ffffffffffffffffffffffffffffffffffffffff1673ffffffffffffffffffffffffffffffffffffffff1663faa8aab16040518163ffffffff1660e01b8152600401602060405180830381865afa158015610110573d6000803e3d6000fd5b505050506040513d601f19601f820116820180604052508101906101349190610529565b73ffffffffffffffffffffffffffffffffffffffff161461018a576040517f08c379a0000000000000000000000000000000000000000000000000000000008152600401610181906105b3565b60405180910390fd5b7fffffffffffffffffffffffffffffffffffffffffffffffffffffffffffffffff7f542716ccde0a3fd74601ae4bfa898139e782bb572a8d2efa9b3bd9b79d5a240c54163660008037600080366000845af43d6000803e600081036101ee573d6000fd5b3d6000f35b60008060019054906101000a900460ff161590508080156102245750600160008054906101000a900460ff1660ff16105b80610251575061023330610424565b1580156102505750600160008054906101000a900460ff1660ff16145b5b610290576040517f08c379a000000000000000000000000000000000000000000000000000000000815260040161028790610645565b60405180910390fd5b60016000806101000a81548160ff021916908360ff16021790555080156102cd576001600060016101000a81548160ff0219169083151502179055505b600073ffffffffffffffffffffffffffffffffffffffff168373ffffffffffffffffffffffffffffffffffffffff160361033c576040517f08c379a0000000000000000000000000000000000000000000000000000000008152600401610333906106b1565b60405180910390fd5b81600060026101000a81548173ffffffffffffffffffffffffffffffffffffffff021916908373ffffffffffffffffffffffffffffffffffffffff160217905550827f542716ccde0a3fd74601ae4bfa898139e782bb572a8d2efa9b3bd9b79d5a240c5580156103f95760008060016101000a81548160ff0219169083151502179055507f7f26b83ff96e1f2b6a682f133852f6798a09c465da95921460cefb384740249860016040516103f09190610723565b60405180910390a15b505050565b600060029054906101000a900473ffffffffffffffffffffffffffffffffffffffff1681565b6000808273ffffffffffffffffffffffffffffffffffffffff163b119050919050565b600080fd5b600073ffffffffffffffffffffffffffffffffffffffff82169050919050565b60006104778261044c565b9050919050565b6104878161046c565b811461049257600080fd5b50565b6000813590506104a48161047e565b92915050565b600080604083850312156104c1576104c0610447565b5b60006104cf85828601610495565b92505060206104e085828601610495565b9150509250929050565b6104f38161046c565b82525050565b600060208201905061050e60008301846104ea565b92915050565b6000815190506105238161047e565b92915050565b60006020828403121561053f5761053e610447565b5b600061054d84828501610514565b91505092915050565b600082825260208201905092915050565b7f496e76616c69642063616c6c6572000000000000000000000000000000000000600082015250565b600061059d600e83610556565b91506105a882610567565b602082019050919050565b600060208201905081810360008301526105cc81610590565b9050919050565b7f496e697469616c697a61626c653a20636f6e747261637420697320616c72656160008201527f647920696e697469616c697a6564000000000000000000000000000000000000602082015250565b600061062f602e83610556565b915061063a826105d3565b604082019050919050565b6000602082019050818103600083015261065e81610622565b9050919050565b7f496e76616c6964206d6173746572636f70792061646472657373000000000000600082015250565b600061069b601a83610556565b91506106a682610665565b602082019050919050565b600060208201905081810360008301526106ca8161068e565b9050919050565b6000819050919050565b600060ff82169050919050565b6000819050919050565b600061070d610708610703846106d1565b6106e8565b6106db565b9050919050565b61071d816106f2565b82525050565b60006020820190506107386000830184610714565b9291505056fea26469706673582212208db128e14db16583dcd555135e4c55a62d6e32d27d46c891aad824e657eabddb64736f6c634300080f0033a26469706673582212205dcd43dba17c41fe17426fae12da638d0e34e509e31e9254ed654dd1f0695f4564736f6c634300080f0033",
  "linkReferences": {},
  "deployedLinkReferences": {}
}