{
  "address": "0x45F33bF5264059EF5826d0d3D6b16594E2acEc34",
  "_format": "hh-sol-artifact-1",
  "contractName": "ProxyFactory",
  "sourceName": "contracts/proxies/ProxyFactory.sol",
  "abi": [
    {
      "inputs": [],
      "name": "InvalidPhoneNumberOrUUID",
      "type": "error"
    },
    {
      "inputs": [],
      "name": "ZeroAddress",
      "type": "error"
    },
    {
      "anonymous": false,
      "inputs": [
        {
          "indexed": false,
          "internalType": "uint8",
          "name": "version",
          "type": "uint8"
        }
      ],
      "name": "Initialized",
      "type": "event"
    },
    {
      "anonymous": false,
      "inputs": [
        {
          "indexed": true,
          "internalType": "address",
          "name": "oldMastercopy",
          "type": "address"
        },
        {
          "indexed": true,
          "internalType": "address",
          "name": "newMastercopy",
          "type": "address"
        }
      ],
      "name": "MastercopyUpdated",
      "type": "event"
    },
    {
      "anonymous": false,
      "inputs": [
        {
          "indexed": true,
          "internalType": "address",
          "name": "previousOwner",
          "type": "address"
        },
        {
          "indexed": true,
          "internalType": "address",
          "name": "newOwner",
          "type": "address"
        }
      ],
      "name": "OwnershipTransferred",
      "type": "event"
    },
    {
      "anonymous": false,
      "inputs": [
        {
          "indexed": false,
          "internalType": "address",
          "name": "account",
          "type": "address"
        }
      ],
      "name": "Paused",
      "type": "event"
    },
    {
      "anonymous": false,
      "inputs": [
        {
          "indexed": false,
          "internalType": "address",
          "name": "account",
          "type": "address"
        }
      ],
      "name": "Unpaused",
      "type": "event"
    },
    {
      "anonymous": false,
      "inputs": [
        {
          "indexed": true,
          "internalType": "address",
          "name": "wallet",
          "type": "address"
        },
        {
          "indexed": false,
          "internalType": "string",
          "name": "phoneNumber",
          "type": "string"
        },
        {
          "indexed": false,
          "internalType": "uint256",
          "name": "index",
          "type": "uint256"
        }
      ],
      "name": "WalletCreated",
      "type": "event"
    },
    {
      "inputs": [
        {
          "internalType": "uint256",
          "name": "",
          "type": "uint256"
        }
      ],
      "name": "allWallets",
      "outputs": [
        {
          "internalType": "address",
          "name": "",
          "type": "address"
        }
      ],
      "stateMutability": "view",
      "type": "function"
    },
    {
      "inputs": [],
      "name": "callerAddress",
      "outputs": [
        {
          "internalType": "address",
          "name": "",
          "type": "address"
        }
      ],
      "stateMutability": "view",
      "type": "function"
    },
    {
      "inputs": [
        {
          "internalType": "address",
          "name": "_mastercopy",
          "type": "address"
        },
        {
          "internalType": "address",
          "name": "_callerAddress",
          "type": "address"
        }
      ],
      "name": "initialize",
      "outputs": [],
      "stateMutability": "nonpayable",
      "type": "function"
    },
    {
      "inputs": [
        {
          "internalType": "string",
          "name": "phoneNumberOrUuid",
          "type": "string"
        }
      ],
      "name": "newWallet",
      "outputs": [
        {
          "internalType": "address",
          "name": "wallet",
          "type": "address"
        }
      ],
      "stateMutability": "nonpayable",
      "type": "function"
    },
    {
      "inputs": [],
      "name": "owner",
      "outputs": [
        {
          "internalType": "address",
          "name": "",
          "type": "address"
        }
      ],
      "stateMutability": "view",
      "type": "function"
    },
    {
      "inputs": [],
      "name": "pause",
      "outputs": [],
      "stateMutability": "nonpayable",
      "type": "function"
    },
    {
      "inputs": [],
      "name": "paused",
      "outputs": [
        {
          "internalType": "bool",
          "name": "",
          "type": "bool"
        }
      ],
      "stateMutability": "view",
      "type": "function"
    },
    {
      "inputs": [],
      "name": "renounceOwnership",
      "outputs": [],
      "stateMutability": "nonpayable",
      "type": "function"
    },
    {
      "inputs": [
        {
          "internalType": "address",
          "name": "newOwner",
          "type": "address"
        }
      ],
      "name": "transferOwnership",
      "outputs": [],
      "stateMutability": "nonpayable",
      "type": "function"
    },
    {
      "inputs": [],
      "name": "unpause",
      "outputs": [],
      "stateMutability": "nonpayable",
      "type": "function"
    },
    {
      "inputs": [
        {
          "internalType": "address",
          "name": "_mastercopy",
          "type": "address"
        }
      ],
      "name": "updateMastercopy",
      "outputs": [],
      "stateMutability": "nonpayable",
      "type": "function"
    }
  ],
  "bytecode": "0x608060405234801561001057600080fd5b50611c7f806100206000396000f3fe608060405234801561001057600080fd5b50600436106100a95760003560e01c8063715018a611610071578063715018a61461013e5780638456cb59146101485780638cf8350f146101525780638da5cb5b14610182578063f2fde38b146101a0578063faa8aab1146101bc576100a9565b806301287e11146100ae5780633f4ba83a146100de57806347e285be146100e8578063485cc955146101045780635c975abb14610120575b600080fd5b6100c860048036038101906100c39190610e34565b6101da565b6040516100d59190610ebe565b60405180910390f35b6100e6610427565b005b61010260048036038101906100fd9190610f05565b610439565b005b61011e60048036038101906101199190610f32565b61056d565b005b610128610737565b6040516101359190610f8d565b60405180910390f35b61014661074e565b005b610150610762565b005b61016c60048036038101906101679190610fde565b610774565b6040516101799190610ebe565b60405180910390f35b61018a6107b3565b6040516101979190610ebe565b60405180910390f35b6101ba60048036038101906101b59190610f05565b6107dd565b005b6101c4610860565b6040516101d19190610ebe565b60405180910390f35b60006101e4610886565b609860009054906101000a900473ffffffffffffffffffffffffffffffffffffffff1673ffffffffffffffffffffffffffffffffffffffff163373ffffffffffffffffffffffffffffffffffffffff161461023e57600080fd5b600c8251101561027a576040517ffddcf51200000000000000000000000000000000000000000000000000000000815260040160405180910390fd5b60006040518060200161028c90610ccd565b6020820181038252601f19601f8201166040525090506000836040516020016102b59190611085565b604051602081830303815290604052805190602001209050808251602084016000f592508273ffffffffffffffffffffffffffffffffffffffff1663485cc955609760009054906101000a900473ffffffffffffffffffffffffffffffffffffffff16306040518363ffffffff1660e01b815260040161033692919061109c565b600060405180830381600087803b15801561035057600080fd5b505af1158015610364573d6000803e3d6000fd5b505050506099839080600181540180825580915050600190039060005260206000200160009091909190916101000a81548173ffffffffffffffffffffffffffffffffffffffff021916908373ffffffffffffffffffffffffffffffffffffffff1602179055508273ffffffffffffffffffffffffffffffffffffffff167f6404337443f20cb661d0c29fe9707f8c9db6087985fa06ddf66cdda4d504d02e8560998054905060405161041892919061111e565b60405180910390a25050919050565b61042f6108d0565b61043761094e565b565b6104416108d0565b600073ffffffffffffffffffffffffffffffffffffffff168173ffffffffffffffffffffffffffffffffffffffff16146104a7576040517fd92e233d00000000000000000000000000000000000000000000000000000000815260040160405180910390fd5b6000609760009054906101000a900473ffffffffffffffffffffffffffffffffffffffff16905081609760006101000a81548173ffffffffffffffffffffffffffffffffffffffff021916908373ffffffffffffffffffffffffffffffffffffffff1602179055508173ffffffffffffffffffffffffffffffffffffffff168173ffffffffffffffffffffffffffffffffffffffff167f2e59c47f4107f39d60d306e4b9b13cb9a281e8d25978625ed49a18ca92f3d34360405160405180910390a35050565b60008060019054906101000a900460ff1615905080801561059e5750600160008054906101000a900460ff1660ff16105b806105cb57506105ad306109b1565b1580156105ca5750600160008054906101000a900460ff1660ff16145b5b61060a576040517f08c379a0000000000000000000000000000000000000000000000000000000008152600401610601906111c0565b60405180910390fd5b60016000806101000a81548160ff021916908360ff1602179055508015610647576001600060016101000a81548160ff0219169083151502179055505b61064f6109d4565b610657610a2d565b82609760006101000a81548173ffffffffffffffffffffffffffffffffffffffff021916908373ffffffffffffffffffffffffffffffffffffffff16021790555081609860006101000a81548173ffffffffffffffffffffffffffffffffffffffff021916908373ffffffffffffffffffffffffffffffffffffffff16021790555080156107325760008060016101000a81548160ff0219169083151502179055507f7f26b83ff96e1f2b6a682f133852f6798a09c465da95921460cefb384740249860016040516107299190611232565b60405180910390a15b505050565b6000603360009054906101000a900460ff16905090565b6107566108d0565b6107606000610a86565b565b61076a6108d0565b610772610b4c565b565b6099818154811061078457600080fd5b906000526020600020016000915054906101000a900473ffffffffffffffffffffffffffffffffffffffff1681565b6000606560009054906101000a900473ffffffffffffffffffffffffffffffffffffffff16905090565b6107e56108d0565b600073ffffffffffffffffffffffffffffffffffffffff168173ffffffffffffffffffffffffffffffffffffffff1603610854576040517f08c379a000000000000000000000000000000000000000000000000000000000815260040161084b906112bf565b60405180910390fd5b61085d81610a86565b50565b609860009054906101000a900473ffffffffffffffffffffffffffffffffffffffff1681565b61088e610737565b156108ce576040517f08c379a00000000000000000000000000000000000000000000000000000000081526004016108c59061132b565b60405180910390fd5b565b6108d8610baf565b73ffffffffffffffffffffffffffffffffffffffff166108f66107b3565b73ffffffffffffffffffffffffffffffffffffffff161461094c576040517f08c379a000000000000000000000000000000000000000000000000000000000815260040161094390611397565b60405180910390fd5b565b610956610bb7565b6000603360006101000a81548160ff0219169083151502179055507f5db9ee0a495bf2e6ff9c91a7834c1ba4fdd244a5e8aa4e537bd38aeae4b073aa61099a610baf565b6040516109a79190610ebe565b60405180910390a1565b6000808273ffffffffffffffffffffffffffffffffffffffff163b119050919050565b600060019054906101000a900460ff16610a23576040517f08c379a0000000000000000000000000000000000000000000000000000000008152600401610a1a90611429565b60405180910390fd5b610a2b610c00565b565b600060019054906101000a900460ff16610a7c576040517f08c379a0000000000000000000000000000000000000000000000000000000008152600401610a7390611429565b60405180910390fd5b610a84610c6c565b565b6000606560009054906101000a900473ffffffffffffffffffffffffffffffffffffffff16905081606560006101000a81548173ffffffffffffffffffffffffffffffffffffffff021916908373ffffffffffffffffffffffffffffffffffffffff1602179055508173ffffffffffffffffffffffffffffffffffffffff168173ffffffffffffffffffffffffffffffffffffffff167f8be0079c531659141344cd1fd0a4f28419497f9722a3daafe3b4186f6b6457e060405160405180910390a35050565b610b54610886565b6001603360006101000a81548160ff0219169083151502179055507f62e78cea01bee320cd4e420270b5ea74000d11b0c9f74754ebdbfc544b05a258610b98610baf565b604051610ba59190610ebe565b60405180910390a1565b600033905090565b610bbf610737565b610bfe576040517f08c379a0000000000000000000000000000000000000000000000000000000008152600401610bf590611495565b60405180910390fd5b565b600060019054906101000a900460ff16610c4f576040517f08c379a0000000000000000000000000000000000000000000000000000000008152600401610c4690611429565b60405180910390fd5b6000603360006101000a81548160ff021916908315150217905550565b600060019054906101000a900460ff16610cbb576040517f08c379a0000000000000000000000000000000000000000000000000000000008152600401610cb290611429565b60405180910390fd5b610ccb610cc6610baf565b610a86565b565b610794806114b683390190565b6000604051905090565b600080fd5b600080fd5b600080fd5b600080fd5b6000601f19601f8301169050919050565b7f4e487b7100000000000000000000000000000000000000000000000000000000600052604160045260246000fd5b610d4182610cf8565b810181811067ffffffffffffffff82111715610d6057610d5f610d09565b5b80604052505050565b6000610d73610cda565b9050610d7f8282610d38565b919050565b600067ffffffffffffffff821115610d9f57610d9e610d09565b5b610da882610cf8565b9050602081019050919050565b82818337600083830152505050565b6000610dd7610dd284610d84565b610d69565b905082815260208101848484011115610df357610df2610cf3565b5b610dfe848285610db5565b509392505050565b600082601f830112610e1b57610e1a610cee565b5b8135610e2b848260208601610dc4565b91505092915050565b600060208284031215610e4a57610e49610ce4565b5b600082013567ffffffffffffffff811115610e6857610e67610ce9565b5b610e7484828501610e06565b91505092915050565b600073ffffffffffffffffffffffffffffffffffffffff82169050919050565b6000610ea882610e7d565b9050919050565b610eb881610e9d565b82525050565b6000602082019050610ed36000830184610eaf565b92915050565b610ee281610e9d565b8114610eed57600080fd5b50565b600081359050610eff81610ed9565b92915050565b600060208284031215610f1b57610f1a610ce4565b5b6000610f2984828501610ef0565b91505092915050565b60008060408385031215610f4957610f48610ce4565b5b6000610f5785828601610ef0565b9250506020610f6885828601610ef0565b9150509250929050565b60008115159050919050565b610f8781610f72565b82525050565b6000602082019050610fa26000830184610f7e565b92915050565b6000819050919050565b610fbb81610fa8565b8114610fc657600080fd5b50565b600081359050610fd881610fb2565b92915050565b600060208284031215610ff457610ff3610ce4565b5b600061100284828501610fc9565b91505092915050565b600081519050919050565b600081905092915050565b60005b8381101561103f578082015181840152602081019050611024565b8381111561104e576000848401525b50505050565b600061105f8261100b565b6110698185611016565b9350611079818560208601611021565b80840191505092915050565b60006110918284611054565b915081905092915050565b60006040820190506110b16000830185610eaf565b6110be6020830184610eaf565b9392505050565b600082825260208201905092915050565b60006110e18261100b565b6110eb81856110c5565b93506110fb818560208601611021565b61110481610cf8565b840191505092915050565b61111881610fa8565b82525050565b6000604082019050818103600083015261113881856110d6565b9050611147602083018461110f565b9392505050565b7f496e697469616c697a61626c653a20636f6e747261637420697320616c72656160008201527f647920696e697469616c697a6564000000000000000000000000000000000000602082015250565b60006111aa602e836110c5565b91506111b58261114e565b604082019050919050565b600060208201905081810360008301526111d98161119d565b9050919050565b6000819050919050565b600060ff82169050919050565b6000819050919050565b600061121c611217611212846111e0565b6111f7565b6111ea565b9050919050565b61122c81611201565b82525050565b60006020820190506112476000830184611223565b92915050565b7f4f776e61626c653a206e6577206f776e657220697320746865207a65726f206160008201527f6464726573730000000000000000000000000000000000000000000000000000602082015250565b60006112a96026836110c5565b91506112b48261124d565b604082019050919050565b600060208201905081810360008301526112d88161129c565b9050919050565b7f5061757361626c653a2070617573656400000000000000000000000000000000600082015250565b60006113156010836110c5565b9150611320826112df565b602082019050919050565b6000602082019050818103600083015261134481611308565b9050919050565b7f4f776e61626c653a2063616c6c6572206973206e6f7420746865206f776e6572600082015250565b60006113816020836110c5565b915061138c8261134b565b602082019050919050565b600060208201905081810360008301526113b081611374565b9050919050565b7f496e697469616c697a61626c653a20636f6e7472616374206973206e6f74206960008201527f6e697469616c697a696e67000000000000000000000000000000000000000000602082015250565b6000611413602b836110c5565b915061141e826113b7565b604082019050919050565b6000602082019050818103600083015261144281611406565b9050919050565b7f5061757361626c653a206e6f7420706175736564000000000000000000000000600082015250565b600061147f6014836110c5565b915061148a82611449565b602082019050919050565b600060208201905081810360008301526114ae81611472565b905091905056fe608060405234801561001057600080fd5b50610774806100206000396000f3fe60806040526004361061002d5760003560e01c8063485cc95514610038578063966dae0e146100615761002e565b5b61003661008c565b005b34801561004457600080fd5b5061005f600480360381019061005a91906104aa565b6101f3565b005b34801561006d57600080fd5b506100766103fe565b60405161008391906104f9565b60405180910390f35b3373ffffffffffffffffffffffffffffffffffffffff16600060029054906101000a900473ffffffffffffffffffffffffffffffffffffffff1673ffffffffffffffffffffffffffffffffffffffff1663faa8aab16040518163ffffffff1660e01b8152600401602060405180830381865afa158015610110573d6000803e3d6000fd5b505050506040513d601f19601f820116820180604052508101906101349190610529565b73ffffffffffffffffffffffffffffffffffffffff161461018a576040517f08c379a0000000000000000000000000000000000000000000000000000000008152600401610181906105b3565b60405180910390fd5b7fffffffffffffffffffffffffffffffffffffffffffffffffffffffffffffffff7f542716ccde0a3fd74601ae4bfa898139e782bb572a8d2efa9b3bd9b79d5a240c54163660008037600080366000845af43d6000803e600081036101ee573d6000fd5b3d6000f35b60008060019054906101000a900460ff161590508080156102245750600160008054906101000a900460ff1660ff16105b80610251575061023330610424565b1580156102505750600160008054906101000a900460ff1660ff16145b5b610290576040517f08c379a000000000000000000000000000000000000000000000000000000000815260040161028790610645565b60405180910390fd5b60016000806101000a81548160ff021916908360ff16021790555080156102cd576001600060016101000a81548160ff0219169083151502179055505b600073ffffffffffffffffffffffffffffffffffffffff168373ffffffffffffffffffffffffffffffffffffffff160361033c576040517f08c379a0000000000000000000000000000000000000000000000000000000008152600401610333906106b1565b60405180910390fd5b81600060026101000a81548173ffffffffffffffffffffffffffffffffffffffff021916908373ffffffffffffffffffffffffffffffffffffffff160217905550827f542716ccde0a3fd74601ae4bfa898139e782bb572a8d2efa9b3bd9b79d5a240c5580156103f95760008060016101000a81548160ff0219169083151502179055507f7f26b83ff96e1f2b6a682f133852f6798a09c465da95921460cefb384740249860016040516103f09190610723565b60405180910390a15b505050565b600060029054906101000a900473ffffffffffffffffffffffffffffffffffffffff1681565b6000808273ffffffffffffffffffffffffffffffffffffffff163b119050919050565b600080fd5b600073ffffffffffffffffffffffffffffffffffffffff82169050919050565b60006104778261044c565b9050919050565b6104878161046c565b811461049257600080fd5b50565b6000813590506104a48161047e565b92915050565b600080604083850312156104c1576104c0610447565b5b60006104cf85828601610495565b92505060206104e085828601610495565b9150509250929050565b6104f38161046c565b82525050565b600060208201905061050e60008301846104ea565b92915050565b6000815190506105238161047e565b92915050565b60006020828403121561053f5761053e610447565b5b600061054d84828501610514565b91505092915050565b600082825260208201905092915050565b7f496e76616c69642063616c6c6572000000000000000000000000000000000000600082015250565b600061059d600e83610556565b91506105a882610567565b602082019050919050565b600060208201905081810360008301526105cc81610590565b9050919050565b7f496e697469616c697a61626c653a20636f6e747261637420697320616c72656160008201527f647920696e697469616c697a6564000000000000000000000000000000000000602082015250565b600061062f602e83610556565b915061063a826105d3565b604082019050919050565b6000602082019050818103600083015261065e81610622565b9050919050565b7f496e76616c6964206d6173746572636f70792061646472657373000000000000600082015250565b600061069b601a83610556565b91506106a682610665565b602082019050919050565b600060208201905081810360008301526106ca8161068e565b9050919050565b6000819050919050565b600060ff82169050919050565b6000819050919050565b600061070d610708610703846106d1565b6106e8565b6106db565b9050919050565b61071d816106f2565b82525050565b60006020820190506107386000830184610714565b9291505056fea2646970667358221220d5fe1b76a8de6f956a5626621cae4cc5cc7e76c55689dad2abd555137fcaa97264736f6c634300080f0033a264697066735822122058491d37975c111c1bffbb2d308fc6b2b3f711e1ab10efd1d56a16b64920adf764736f6c634300080f0033",
  "linkReferences": {},
  "deployedLinkReferences": {}
}