{
  "address": "0xa8B39261fC1D8Ffe3a24955766Bf5E6aEFcb70B4",
  "_format": "hh-sol-artifact-1",
  "contractName": "Wallet",
  "sourceName": "contracts/base/Wallet.sol",
  "abi": [
    {
      "inputs": [],
      "name": "InsufficientBalance",
      "type": "error"
    },
    {
      "inputs": [],
      "name": "InvalidTokenAddress",
      "type": "error"
    },
    {
      "inputs": [],
      "name": "InvalidWalletAddress",
      "type": "error"
    },
    {
      "inputs": [],
      "name": "TransferFailed",
      "type": "error"
    },
    {
      "inputs": [],
      "name": "ZeroAddress",
      "type": "error"
    },
    {
      "stateMutability": "payable",
      "type": "fallback"
    },
    {
      "inputs": [
        {
          "internalType": "address",
          "name": "_token",
          "type": "address"
        },
        {
          "internalType": "address",
          "name": "_recipient",
          "type": "address"
        },
        {
          "internalType": "uint256",
          "name": "amount",
          "type": "uint256"
        }
      ],
      "name": "approve",
      "outputs": [
        {
          "internalType": "bool",
          "name": "",
          "type": "bool"
        }
      ],
      "stateMutability": "nonpayable",
      "type": "function"
    },
    {
      "inputs": [
        {
          "internalType": "address",
          "name": "_token",
          "type": "address"
        }
      ],
      "name": "balance",
      "outputs": [
        {
          "internalType": "uint256",
          "name": "",
          "type": "uint256"
        }
      ],
      "stateMutability": "view",
      "type": "function"
    },
    {
      "inputs": [
        {
          "internalType": "uint256",
          "name": "amountIn",
          "type": "uint256"
        },
        {
          "internalType": "uint256",
          "name": "amountOutMin",
          "type": "uint256"
        },
        {
          "internalType": "address[]",
          "name": "path",
          "type": "address[]"
        },
        {
          "internalType": "address",
          "name": "to",
          "type": "address"
        },
        {
          "internalType": "address",
          "name": "exchangeAddress",
          "type": "address"
        }
      ],
      "name": "swapExactTokensForTokens",
      "outputs": [
        {
          "internalType": "uint256[]",
          "name": "amounts",
          "type": "uint256[]"
        }
      ],
      "stateMutability": "nonpayable",
      "type": "function"
    },
    {
      "inputs": [],
      "name": "version",
      "outputs": [
        {
          "internalType": "string",
          "name": "",
          "type": "string"
        }
      ],
      "stateMutability": "pure",
      "type": "function"
    },
    {
      "inputs": [
        {
          "internalType": "address",
          "name": "_to",
          "type": "address"
        },
        {
          "internalType": "uint256",
          "name": "_amount",
          "type": "uint256"
        }
      ],
      "name": "withdrawNativeToken",
      "outputs": [],
      "stateMutability": "nonpayable",
      "type": "function"
    },
    {
      "inputs": [
        {
          "internalType": "address",
          "name": "_token",
          "type": "address"
        },
        {
          "internalType": "address",
          "name": "_to",
          "type": "address"
        },
        {
          "internalType": "uint256",
          "name": "_amount",
          "type": "uint256"
        }
      ],
      "name": "withdrawToken",
      "outputs": [
        {
          "internalType": "bool",
          "name": "",
          "type": "bool"
        }
      ],
      "stateMutability": "nonpayable",
      "type": "function"
    },
    {
      "stateMutability": "payable",
      "type": "receive"
    }
  ],
  "bytecode": "0x608060405234801561001057600080fd5b50610fed806100206000396000f3fe6080604052600436106100595760003560e01c806301e3366714610062578063536c6bfa1461009f57806354fd4d50146100c8578063bc03d0f3146100f3578063e1f21c6714610130578063e3d670d71461016d57610060565b3661006057005b005b34801561006e57600080fd5b5061008960048036038101906100849190610831565b6101aa565b604051610096919061089f565b60405180910390f35b3480156100ab57600080fd5b506100c660048036038101906100c191906108ba565b610388565b005b3480156100d457600080fd5b506100dd6104d0565b6040516100ea9190610993565b60405180910390f35b3480156100ff57600080fd5b5061011a60048036038101906101159190610a1a565b61050d565b6040516101279190610b72565b60405180910390f35b34801561013c57600080fd5b5061015760048036038101906101529190610831565b6105a4565b604051610164919061089f565b60405180910390f35b34801561017957600080fd5b50610194600480360381019061018f9190610b94565b6106ca565b6040516101a19190610bd0565b60405180910390f35b60008073ffffffffffffffffffffffffffffffffffffffff168473ffffffffffffffffffffffffffffffffffffffff1603610211576040517f1eb00b0600000000000000000000000000000000000000000000000000000000815260040160405180910390fd5b818473ffffffffffffffffffffffffffffffffffffffff166370a08231306040518263ffffffff1660e01b815260040161024b9190610bfa565b602060405180830381865afa158015610268573d6000803e3d6000fd5b505050506040513d601f19601f8201168201806040525081019061028c9190610c2a565b10156102c4576040517ff4d678b800000000000000000000000000000000000000000000000000000000815260040160405180910390fd5b60008473ffffffffffffffffffffffffffffffffffffffff1663a9059cbb85856040518363ffffffff1660e01b8152600401610301929190610c57565b6020604051808303816000875af1158015610320573d6000803e3d6000fd5b505050506040513d601f19601f820116820180604052508101906103449190610cac565b90508061037d576040517f90b8ec1800000000000000000000000000000000000000000000000000000000815260040160405180910390fd5b809150509392505050565b600073ffffffffffffffffffffffffffffffffffffffff168273ffffffffffffffffffffffffffffffffffffffff16036103ee576040517fa5f90a1100000000000000000000000000000000000000000000000000000000815260040160405180910390fd5b80471015610428576040517ff4d678b800000000000000000000000000000000000000000000000000000000815260040160405180910390fd5b60008273ffffffffffffffffffffffffffffffffffffffff168260405161044e90610d0a565b60006040518083038185875af1925050503d806000811461048b576040519150601f19603f3d011682016040523d82523d6000602084013e610490565b606091505b50509050806104cb576040517f90b8ec1800000000000000000000000000000000000000000000000000000000815260040160405180910390fd5b505050565b60606040518060400160405280600581526020017f302e302e31000000000000000000000000000000000000000000000000000000815250905090565b60608173ffffffffffffffffffffffffffffffffffffffff1663472b43f388888888886040518663ffffffff1660e01b8152600401610550959493929190610de2565b6000604051808303816000875af115801561056f573d6000803e3d6000fd5b505050506040513d6000823e3d601f19601f820116820180604052508101906105989190610f6e565b90509695505050505050565b60008073ffffffffffffffffffffffffffffffffffffffff168473ffffffffffffffffffffffffffffffffffffffff16148061060c5750600073ffffffffffffffffffffffffffffffffffffffff168373ffffffffffffffffffffffffffffffffffffffff16145b15610643576040517fd92e233d00000000000000000000000000000000000000000000000000000000815260040160405180910390fd5b8373ffffffffffffffffffffffffffffffffffffffff1663095ea7b384846040518363ffffffff1660e01b815260040161067e929190610c57565b6020604051808303816000875af115801561069d573d6000803e3d6000fd5b505050506040513d601f19601f820116820180604052508101906106c19190610cac565b90509392505050565b60008073ffffffffffffffffffffffffffffffffffffffff168273ffffffffffffffffffffffffffffffffffffffff160361070757479050610784565b8173ffffffffffffffffffffffffffffffffffffffff166370a08231306040518263ffffffff1660e01b81526004016107409190610bfa565b602060405180830381865afa15801561075d573d6000803e3d6000fd5b505050506040513d601f19601f820116820180604052508101906107819190610c2a565b90505b919050565b6000604051905090565b600080fd5b600080fd5b600073ffffffffffffffffffffffffffffffffffffffff82169050919050565b60006107c88261079d565b9050919050565b6107d8816107bd565b81146107e357600080fd5b50565b6000813590506107f5816107cf565b92915050565b6000819050919050565b61080e816107fb565b811461081957600080fd5b50565b60008135905061082b81610805565b92915050565b60008060006060848603121561084a57610849610793565b5b6000610858868287016107e6565b9350506020610869868287016107e6565b925050604061087a8682870161081c565b9150509250925092565b60008115159050919050565b61089981610884565b82525050565b60006020820190506108b46000830184610890565b92915050565b600080604083850312156108d1576108d0610793565b5b60006108df858286016107e6565b92505060206108f08582860161081c565b9150509250929050565b600081519050919050565b600082825260208201905092915050565b60005b83811015610934578082015181840152602081019050610919565b83811115610943576000848401525b50505050565b6000601f19601f8301169050919050565b6000610965826108fa565b61096f8185610905565b935061097f818560208601610916565b61098881610949565b840191505092915050565b600060208201905081810360008301526109ad818461095a565b905092915050565b600080fd5b600080fd5b600080fd5b60008083601f8401126109da576109d96109b5565b5b8235905067ffffffffffffffff8111156109f7576109f66109ba565b5b602083019150836020820283011115610a1357610a126109bf565b5b9250929050565b60008060008060008060a08789031215610a3757610a36610793565b5b6000610a4589828a0161081c565b9650506020610a5689828a0161081c565b955050604087013567ffffffffffffffff811115610a7757610a76610798565b5b610a8389828a016109c4565b94509450506060610a9689828a016107e6565b9250506080610aa789828a016107e6565b9150509295509295509295565b600081519050919050565b600082825260208201905092915050565b6000819050602082019050919050565b610ae9816107fb565b82525050565b6000610afb8383610ae0565b60208301905092915050565b6000602082019050919050565b6000610b1f82610ab4565b610b298185610abf565b9350610b3483610ad0565b8060005b83811015610b65578151610b4c8882610aef565b9750610b5783610b07565b925050600181019050610b38565b5085935050505092915050565b60006020820190508181036000830152610b8c8184610b14565b905092915050565b600060208284031215610baa57610ba9610793565b5b6000610bb8848285016107e6565b91505092915050565b610bca816107fb565b82525050565b6000602082019050610be56000830184610bc1565b92915050565b610bf4816107bd565b82525050565b6000602082019050610c0f6000830184610beb565b92915050565b600081519050610c2481610805565b92915050565b600060208284031215610c4057610c3f610793565b5b6000610c4e84828501610c15565b91505092915050565b6000604082019050610c6c6000830185610beb565b610c796020830184610bc1565b9392505050565b610c8981610884565b8114610c9457600080fd5b50565b600081519050610ca681610c80565b92915050565b600060208284031215610cc257610cc1610793565b5b6000610cd084828501610c97565b91505092915050565b600081905092915050565b50565b6000610cf4600083610cd9565b9150610cff82610ce4565b600082019050919050565b6000610d1582610ce7565b9150819050919050565b600082825260208201905092915050565b6000819050919050565b610d43816107bd565b82525050565b6000610d558383610d3a565b60208301905092915050565b6000610d7060208401846107e6565b905092915050565b6000602082019050919050565b6000610d918385610d1f565b9350610d9c82610d30565b8060005b85811015610dd557610db28284610d61565b610dbc8882610d49565b9750610dc783610d78565b925050600181019050610da0565b5085925050509392505050565b6000608082019050610df76000830188610bc1565b610e046020830187610bc1565b8181036040830152610e17818587610d85565b9050610e266060830184610beb565b9695505050505050565b7f4e487b7100000000000000000000000000000000000000000000000000000000600052604160045260246000fd5b610e6882610949565b810181811067ffffffffffffffff82111715610e8757610e86610e30565b5b80604052505050565b6000610e9a610789565b9050610ea68282610e5f565b919050565b600067ffffffffffffffff821115610ec657610ec5610e30565b5b602082029050602081019050919050565b6000610eea610ee584610eab565b610e90565b90508083825260208201905060208402830185811115610f0d57610f0c6109bf565b5b835b81811015610f365780610f228882610c15565b845260208401935050602081019050610f0f565b5050509392505050565b600082601f830112610f5557610f546109b5565b5b8151610f65848260208601610ed7565b91505092915050565b600060208284031215610f8457610f83610793565b5b600082015167ffffffffffffffff811115610fa257610fa1610798565b5b610fae84828501610f40565b9150509291505056fea26469706673582212201579e81918cf5848cda30f8958c45133810ad91f86069fe2ffbc83621e1c66ea64736f6c634300080f0033",
  "linkReferences": {},
  "deployedLinkReferences": {}
}