{
  "address": "0x1435Fcdce5a28ABd435FA22148D4ed51DB5f2C78",
  "_format": "hh-sol-artifact-1",
  "contractName": "Wallet",
  "sourceName": "contracts/base/Wallet.sol",
  "abi": [
    {
      "inputs": [],
      "name": "InsufficientBalance",
      "type": "error"
    },
    {
      "inputs": [],
      "name": "InvalidTokenAddress",
      "type": "error"
    },
    {
      "inputs": [],
      "name": "InvalidWalletAddress",
      "type": "error"
    },
    {
      "inputs": [],
      "name": "TransferFailed",
      "type": "error"
    },
    {
      "inputs": [],
      "name": "ZeroAddress",
      "type": "error"
    },
    {
      "stateMutability": "payable",
      "type": "fallback"
    },
    {
      "inputs": [
        {
          "internalType": "address",
          "name": "_token",
          "type": "address"
        },
        {
          "internalType": "address",
          "name": "_recipient",
          "type": "address"
        },
        {
          "internalType": "uint256",
          "name": "amount",
          "type": "uint256"
        }
      ],
      "name": "approve",
      "outputs": [
        {
          "internalType": "bool",
          "name": "",
          "type": "bool"
        }
      ],
      "stateMutability": "nonpayable",
      "type": "function"
    },
    {
      "inputs": [
        {
          "internalType": "address",
          "name": "_token",
          "type": "address"
        }
      ],
      "name": "balance",
      "outputs": [
        {
          "internalType": "uint256",
          "name": "",
          "type": "uint256"
        }
      ],
      "stateMutability": "view",
      "type": "function"
    },
    {
      "inputs": [],
      "name": "version",
      "outputs": [
        {
          "internalType": "string",
          "name": "",
          "type": "string"
        }
      ],
      "stateMutability": "pure",
      "type": "function"
    },
    {
      "inputs": [
        {
          "internalType": "address",
          "name": "_to",
          "type": "address"
        },
        {
          "internalType": "uint256",
          "name": "_amount",
          "type": "uint256"
        }
      ],
      "name": "withdrawNativeToken",
      "outputs": [],
      "stateMutability": "nonpayable",
      "type": "function"
    },
    {
      "inputs": [
        {
          "internalType": "address",
          "name": "_token",
          "type": "address"
        },
        {
          "internalType": "address",
          "name": "_to",
          "type": "address"
        },
        {
          "internalType": "uint256",
          "name": "_amount",
          "type": "uint256"
        }
      ],
      "name": "withdrawToken",
      "outputs": [
        {
          "internalType": "bool",
          "name": "",
          "type": "bool"
        }
      ],
      "stateMutability": "nonpayable",
      "type": "function"
    },
    {
      "stateMutability": "payable",
      "type": "receive"
    }
  ],
  "bytecode": "0x608060405234801561001057600080fd5b50610a88806100206000396000f3fe60806040526004361061004e5760003560e01c806301e3366714610057578063536c6bfa1461009457806354fd4d50146100bd578063e1f21c67146100e8578063e3d670d71461012557610055565b3661005557005b005b34801561006357600080fd5b5061007e60048036038101906100799190610743565b610162565b60405161008b91906107b1565b60405180910390f35b3480156100a057600080fd5b506100bb60048036038101906100b691906107cc565b610340565b005b3480156100c957600080fd5b506100d2610488565b6040516100df91906108a5565b60405180910390f35b3480156100f457600080fd5b5061010f600480360381019061010a9190610743565b6104c5565b60405161011c91906107b1565b60405180910390f35b34801561013157600080fd5b5061014c600480360381019061014791906108c7565b6105eb565b6040516101599190610903565b60405180910390f35b60008073ffffffffffffffffffffffffffffffffffffffff168473ffffffffffffffffffffffffffffffffffffffff16036101c9576040517f1eb00b0600000000000000000000000000000000000000000000000000000000815260040160405180910390fd5b818473ffffffffffffffffffffffffffffffffffffffff166370a08231306040518263ffffffff1660e01b8152600401610203919061092d565b602060405180830381865afa158015610220573d6000803e3d6000fd5b505050506040513d601f19601f82011682018060405250810190610244919061095d565b101561027c576040517ff4d678b800000000000000000000000000000000000000000000000000000000815260040160405180910390fd5b60008473ffffffffffffffffffffffffffffffffffffffff1663a9059cbb85856040518363ffffffff1660e01b81526004016102b992919061098a565b6020604051808303816000875af11580156102d8573d6000803e3d6000fd5b505050506040513d601f19601f820116820180604052508101906102fc91906109df565b905080610335576040517f90b8ec1800000000000000000000000000000000000000000000000000000000815260040160405180910390fd5b809150509392505050565b600073ffffffffffffffffffffffffffffffffffffffff168273ffffffffffffffffffffffffffffffffffffffff16036103a6576040517fa5f90a1100000000000000000000000000000000000000000000000000000000815260040160405180910390fd5b804710156103e0576040517ff4d678b800000000000000000000000000000000000000000000000000000000815260040160405180910390fd5b60008273ffffffffffffffffffffffffffffffffffffffff168260405161040690610a3d565b60006040518083038185875af1925050503d8060008114610443576040519150601f19603f3d011682016040523d82523d6000602084013e610448565b606091505b5050905080610483576040517f90b8ec1800000000000000000000000000000000000000000000000000000000815260040160405180910390fd5b505050565b60606040518060400160405280600581526020017f302e302e31000000000000000000000000000000000000000000000000000000815250905090565b60008073ffffffffffffffffffffffffffffffffffffffff168473ffffffffffffffffffffffffffffffffffffffff16148061052d5750600073ffffffffffffffffffffffffffffffffffffffff168373ffffffffffffffffffffffffffffffffffffffff16145b15610564576040517fd92e233d00000000000000000000000000000000000000000000000000000000815260040160405180910390fd5b8373ffffffffffffffffffffffffffffffffffffffff1663095ea7b384846040518363ffffffff1660e01b815260040161059f92919061098a565b6020604051808303816000875af11580156105be573d6000803e3d6000fd5b505050506040513d601f19601f820116820180604052508101906105e291906109df565b90509392505050565b60008073ffffffffffffffffffffffffffffffffffffffff168273ffffffffffffffffffffffffffffffffffffffff1603610628574790506106a5565b8173ffffffffffffffffffffffffffffffffffffffff166370a08231306040518263ffffffff1660e01b8152600401610661919061092d565b602060405180830381865afa15801561067e573d6000803e3d6000fd5b505050506040513d601f19601f820116820180604052508101906106a2919061095d565b90505b919050565b600080fd5b600073ffffffffffffffffffffffffffffffffffffffff82169050919050565b60006106da826106af565b9050919050565b6106ea816106cf565b81146106f557600080fd5b50565b600081359050610707816106e1565b92915050565b6000819050919050565b6107208161070d565b811461072b57600080fd5b50565b60008135905061073d81610717565b92915050565b60008060006060848603121561075c5761075b6106aa565b5b600061076a868287016106f8565b935050602061077b868287016106f8565b925050604061078c8682870161072e565b9150509250925092565b60008115159050919050565b6107ab81610796565b82525050565b60006020820190506107c660008301846107a2565b92915050565b600080604083850312156107e3576107e26106aa565b5b60006107f1858286016106f8565b92505060206108028582860161072e565b9150509250929050565b600081519050919050565b600082825260208201905092915050565b60005b8381101561084657808201518184015260208101905061082b565b83811115610855576000848401525b50505050565b6000601f19601f8301169050919050565b60006108778261080c565b6108818185610817565b9350610891818560208601610828565b61089a8161085b565b840191505092915050565b600060208201905081810360008301526108bf818461086c565b905092915050565b6000602082840312156108dd576108dc6106aa565b5b60006108eb848285016106f8565b91505092915050565b6108fd8161070d565b82525050565b600060208201905061091860008301846108f4565b92915050565b610927816106cf565b82525050565b6000602082019050610942600083018461091e565b92915050565b60008151905061095781610717565b92915050565b600060208284031215610973576109726106aa565b5b600061098184828501610948565b91505092915050565b600060408201905061099f600083018561091e565b6109ac60208301846108f4565b9392505050565b6109bc81610796565b81146109c757600080fd5b50565b6000815190506109d9816109b3565b92915050565b6000602082840312156109f5576109f46106aa565b5b6000610a03848285016109ca565b91505092915050565b600081905092915050565b50565b6000610a27600083610a0c565b9150610a3282610a17565b600082019050919050565b6000610a4882610a1a565b915081905091905056fea26469706673582212206c606fccaa0a6f8cd1211354b035fdafe8b07c754832b24b2d66f8d7c26c3ff964736f6c634300080f0033",
  "linkReferences": {},
  "deployedLinkReferences": {}
}